{
  "contractName": "Book",
  "abi": [
    {
      "anonymous": false,
      "inputs": [
        {
          "indexed": false,
          "internalType": "uint256",
          "name": "id",
          "type": "uint256"
        },
        {
          "indexed": false,
          "internalType": "address",
          "name": "addr",
          "type": "address"
        }
      ],
      "name": "borrowSuccess",
      "type": "event"
    },
    {
      "anonymous": false,
      "inputs": [
        {
          "indexed": false,
          "internalType": "uint256",
          "name": "id",
          "type": "uint256"
        },
        {
          "indexed": false,
          "internalType": "address",
          "name": "addr",
          "type": "address"
        },
        {
          "indexed": false,
          "internalType": "uint256",
          "name": "score",
          "type": "uint256"
        }
      ],
      "name": "evaluateSuccess",
      "type": "event"
    },
    {
      "anonymous": false,
      "inputs": [
        {
          "indexed": false,
          "internalType": "uint256",
          "name": "id",
          "type": "uint256"
        },
        {
          "indexed": false,
          "internalType": "address",
          "name": "addr",
          "type": "address"
        }
      ],
      "name": "offBookSuccess",
      "type": "event"
    },
    {
      "anonymous": false,
      "inputs": [
        {
          "indexed": false,
          "internalType": "uint256",
          "name": "id",
          "type": "uint256"
        },
        {
          "indexed": false,
          "internalType": "string",
          "name": "nameWriter",
          "type": "string"
        },
        {
          "indexed": false,
          "internalType": "string",
          "name": "style",
          "type": "string"
        },
        {
          "indexed": false,
          "internalType": "string",
          "name": "publisherPublishAge",
          "type": "string"
        },
        {
          "indexed": false,
          "internalType": "string",
          "name": "ISBN",
          "type": "string"
        },
        {
          "indexed": false,
          "internalType": "string",
          "name": "intro",
          "type": "string"
        },
        {
          "indexed": false,
          "internalType": "string",
          "name": "cover",
          "type": "string"
        },
        {
          "indexed": false,
          "internalType": "uint256",
          "name": "pages",
          "type": "uint256"
        },
        {
          "indexed": false,
          "internalType": "string",
          "name": "status",
          "type": "string"
        },
        {
          "indexed": false,
          "internalType": "uint256",
          "name": "publishDate",
          "type": "uint256"
        }
      ],
      "name": "publishBookSuccess",
      "type": "event"
    },
    {
      "anonymous": false,
      "inputs": [
        {
          "indexed": false,
          "internalType": "uint256",
          "name": "id",
          "type": "uint256"
        },
        {
          "indexed": false,
          "internalType": "address",
          "name": "addr",
          "type": "address"
        }
      ],
      "name": "returnBookSuccess",
      "type": "event"
    },
    {
      "payable": false,
      "stateMutability": "nonpayable",
      "type": "fallback"
    },
    {
      "constant": true,
      "inputs": [],
      "name": "getBorrowedBooks",
      "outputs": [
        {
          "internalType": "uint256[]",
          "name": "",
          "type": "uint256[]"
        }
      ],
      "payable": false,
      "stateMutability": "view",
      "type": "function"
    },
    {
      "constant": true,
      "inputs": [],
      "name": "getCommentedBook",
      "outputs": [
        {
          "internalType": "uint256[]",
          "name": "",
          "type": "uint256[]"
        }
      ],
      "payable": false,
      "stateMutability": "view",
      "type": "function"
    },
    {
      "constant": true,
      "inputs": [],
      "name": "getPublishedBooks",
      "outputs": [
        {
          "internalType": "uint256[]",
          "name": "",
          "type": "uint256[]"
        }
      ],
      "payable": false,
      "stateMutability": "view",
      "type": "function"
    },
    {
      "constant": true,
      "inputs": [],
      "name": "getReturnedBooks",
      "outputs": [
        {
          "internalType": "uint256[]",
          "name": "",
          "type": "uint256[]"
        }
      ],
      "payable": false,
      "stateMutability": "view",
      "type": "function"
    },
    {
      "constant": true,
      "inputs": [],
      "name": "getBooksLength",
      "outputs": [
        {
          "internalType": "uint256",
          "name": "",
          "type": "uint256"
        }
      ],
      "payable": false,
      "stateMutability": "view",
      "type": "function"
    },
    {
      "constant": true,
      "inputs": [
        {
          "internalType": "uint256",
          "name": "id",
          "type": "uint256"
        }
      ],
      "name": "getCommentLength",
      "outputs": [
        {
          "internalType": "uint256",
          "name": "",
          "type": "uint256"
        }
      ],
      "payable": false,
      "stateMutability": "view",
      "type": "function"
    },
    {
      "constant": true,
      "inputs": [
        {
          "internalType": "uint256",
          "name": "id",
          "type": "uint256"
        }
      ],
      "name": "getBorrowNums",
      "outputs": [
        {
          "internalType": "uint256",
          "name": "",
          "type": "uint256"
        }
      ],
      "payable": false,
      "stateMutability": "view",
      "type": "function"
    },
    {
      "constant": true,
      "inputs": [
        {
          "internalType": "uint256",
          "name": "id",
          "type": "uint256"
        }
      ],
      "name": "getBookInfo",
      "outputs": [
        {
          "internalType": "address",
          "name": "",
          "type": "address"
        },
        {
          "internalType": "string",
          "name": "",
          "type": "string"
        },
        {
          "internalType": "string",
          "name": "",
          "type": "string"
        },
        {
          "internalType": "string",
          "name": "",
          "type": "string"
        },
        {
          "internalType": "string",
          "name": "",
          "type": "string"
        },
        {
          "internalType": "string",
          "name": "",
          "type": "string"
        },
        {
          "internalType": "string",
          "name": "",
          "type": "string"
        },
        {
          "internalType": "string",
          "name": "",
          "type": "string"
        },
        {
          "internalType": "uint256",
          "name": "",
          "type": "uint256"
        },
        {
          "internalType": "uint256",
          "name": "",
          "type": "uint256"
        },
        {
          "internalType": "uint256",
          "name": "",
          "type": "uint256"
        },
        {
          "internalType": "uint256",
          "name": "",
          "type": "uint256"
        }
      ],
      "payable": false,
      "stateMutability": "view",
      "type": "function"
    },
    {
      "constant": true,
      "inputs": [
        {
          "internalType": "uint256",
          "name": "id",
          "type": "uint256"
        }
      ],
      "name": "getBorrowerInfo",
      "outputs": [
        {
          "internalType": "address",
          "name": "",
          "type": "address"
        },
        {
          "internalType": "string",
          "name": "",
          "type": "string"
        },
        {
          "internalType": "string",
          "name": "",
          "type": "string"
        },
        {
          "internalType": "string",
          "name": "",
          "type": "string"
        },
        {
          "internalType": "uint256",
          "name": "",
          "type": "uint256"
        },
        {
          "internalType": "uint256",
          "name": "",
          "type": "uint256"
        }
      ],
      "payable": false,
      "stateMutability": "view",
      "type": "function"
    },
    {
      "constant": true,
      "inputs": [
        {
          "internalType": "uint256",
          "name": "bookId",
          "type": "uint256"
        },
        {
          "internalType": "uint256",
          "name": "commentId",
          "type": "uint256"
        }
      ],
      "name": "getCommentInfo",
      "outputs": [
        {
          "internalType": "address",
          "name": "",
          "type": "address"
        },
        {
          "internalType": "uint256",
          "name": "",
          "type": "uint256"
        },
        {
          "internalType": "uint256",
          "name": "",
          "type": "uint256"
        },
        {
          "internalType": "string",
          "name": "",
          "type": "string"
        }
      ],
      "payable": false,
      "stateMutability": "view",
      "type": "function"
    },
    {
      "constant": true,
      "inputs": [
        {
          "internalType": "uint256",
          "name": "id",
          "type": "uint256"
        }
      ],
      "name": "isEvaluated",
      "outputs": [
        {
          "internalType": "bool",
          "name": "",
          "type": "bool"
        }
      ],
      "payable": false,
      "stateMutability": "view",
      "type": "function"
    },
    {
      "constant": true,
      "inputs": [
        {
          "internalType": "uint256",
          "name": "id",
          "type": "uint256"
        }
      ],
      "name": "isBorrowed",
      "outputs": [
        {
          "internalType": "bool",
          "name": "",
          "type": "bool"
        }
      ],
      "payable": false,
      "stateMutability": "view",
      "type": "function"
    },
    {
      "constant": true,
      "inputs": [
        {
          "internalType": "uint256",
          "name": "id",
          "type": "uint256"
        }
      ],
      "name": "isMyBook",
      "outputs": [
        {
          "internalType": "bool",
          "name": "",
          "type": "bool"
        }
      ],
      "payable": false,
      "stateMutability": "view",
      "type": "function"
    },
    {
      "constant": false,
      "inputs": [
        {
          "internalType": "uint256",
          "name": "id",
          "type": "uint256"
        }
      ],
      "name": "isBookLeft",
      "outputs": [
        {
          "internalType": "bool",
          "name": "",
          "type": "bool"
        }
      ],
      "payable": true,
      "stateMutability": "payable",
      "type": "function"
    },
    {
      "constant": false,
      "inputs": [
        {
          "internalType": "string",
          "name": "nameWriter",
          "type": "string"
        },
        {
          "internalType": "string",
          "name": "style",
          "type": "string"
        },
        {
          "internalType": "string",
          "name": "publisherPublishAge",
          "type": "string"
        },
        {
          "internalType": "string",
          "name": "ISBN",
          "type": "string"
        },
        {
          "internalType": "string",
          "name": "intro",
          "type": "string"
        },
        {
          "internalType": "string",
          "name": "cover",
          "type": "string"
        },
        {
          "internalType": "string",
          "name": "status",
          "type": "string"
        },
        {
          "internalType": "uint256",
          "name": "pages",
          "type": "uint256"
        }
      ],
      "name": "publishBookInfo",
      "outputs": [],
      "payable": false,
      "stateMutability": "nonpayable",
      "type": "function"
    },
    {
      "constant": false,
      "inputs": [
        {
          "internalType": "uint256",
          "name": "id",
          "type": "uint256"
        },
        {
          "internalType": "uint256",
          "name": "score",
          "type": "uint256"
        },
        {
          "internalType": "string",
          "name": "content",
          "type": "string"
        }
      ],
      "name": "evaluate",
      "outputs": [],
      "payable": false,
      "stateMutability": "nonpayable",
      "type": "function"
    },
    {
      "constant": false,
      "inputs": [
        {
          "internalType": "uint256",
          "name": "id",
          "type": "uint256"
        }
      ],
      "name": "returnBook",
      "outputs": [],
      "payable": false,
      "stateMutability": "nonpayable",
      "type": "function"
    },
    {
      "constant": false,
      "inputs": [
        {
          "internalType": "uint256",
          "name": "id",
          "type": "uint256"
        }
      ],
      "name": "borrowedBook",
      "outputs": [],
      "payable": false,
      "stateMutability": "nonpayable",
      "type": "function"
    },
    {
      "constant": false,
      "inputs": [
        {
          "internalType": "uint256",
          "name": "id",
          "type": "uint256"
        }
      ],
      "name": "offBook",
      "outputs": [],
      "payable": false,
      "stateMutability": "nonpayable",
      "type": "function"
    }
  ],
  "bytecode": "0x6080604052604051806020016040528073325a0df6416e9fdffc0d709c5e42d25d87cd0e7173ffffffffffffffffffffffffffffffffffffffff1673ffffffffffffffffffffffffffffffffffffffff168152506000906001620000659291906200007f565b5060016003553480156200007857600080fd5b5062000147565b8260018101928215620000ee579160200282015b82811115620000ed5782518260006101000a81548173ffffffffffffffffffffffffffffffffffffffff021916908373ffffffffffffffffffffffffffffffffffffffff1602179055509160200191906001019062000093565b5b509050620000fd919062000101565b5090565b6200014491905b808211156200014057600081816101000a81549073ffffffffffffffffffffffffffffffffffffffff02191690555060010162000108565b5090565b90565b612bd080620001576000396000f3fe6080604052600436106101145760003560e01c80637157eb66116100a0578063b2adb3db11610064578063b2adb3db1461041d578063b80af8ff14610448578063ca5140c914610471578063cf21e5fc1461049a578063d3a82ebf146104c557610114565b80637157eb66146103235780637d7830ae1461034c5780638ccca18a146103895780639ed07ed4146103b45780639fae3010146103dd57610114565b80633a8a39d5116100e75780633a8a39d5146101e25780634754d79b14610224578063550ca61d1461026157806357a268471461029e5780636ef424f4146102e657610114565b806317a4cb99146101265780631f5a5cd51461015157806324ca96171461018e578063341dca15146101b7575b34801561012057600080fd5b50600080fd5b34801561013257600080fd5b5061013b6104f5565b604051610148919061285c565b60405180910390f35b34801561015d57600080fd5b5061017860048036036101739190810190612468565b61058d565b6040516101859190612899565b60405180910390f35b34801561019a57600080fd5b506101b560048036036101b09190810190612468565b6105b5565b005b3480156101c357600080fd5b506101cc610a95565b6040516101d9919061285c565b60405180910390f35b3480156101ee57600080fd5b5061020960048036036102049190810190612468565b610b2d565b60405161021b9695949392919061279a565b60405180910390f35b34801561023057600080fd5b5061024b60048036036102469190810190612468565b610d8c565b604051610258919061287e565b60405180910390f35b34801561026d57600080fd5b5061028860048036036102839190810190612468565b610e19565b604051610295919061287e565b60405180910390f35b3480156102aa57600080fd5b506102c560048036036102c09190810190612468565b610edb565b6040516102dd9c9b9a999897969594939291906126af565b60405180910390f35b3480156102f257600080fd5b5061030d60048036036103089190810190612468565b6113df565b60405161031a9190612899565b60405180910390f35b34801561032f57600080fd5b5061034a600480360361034591908101906124cd565b611426565b005b34801561035857600080fd5b50610373600480360361036e9190810190612468565b61167c565b604051610380919061287e565b60405180910390f35b34801561039557600080fd5b5061039e61171a565b6040516103ab919061285c565b60405180910390f35b3480156103c057600080fd5b506103db60048036036103d69190810190612468565b6117b2565b005b3480156103e957600080fd5b5061040460048036036103ff9190810190612491565b6118d9565b6040516104149493929190612810565b60405180910390f35b34801561042957600080fd5b50610432611a2f565b60405161043f9190612899565b60405180910390f35b34801561045457600080fd5b5061046f600480360361046a919081019061230e565b611a3c565b005b34801561047d57600080fd5b5061049860048036036104939190810190612468565b611d10565b005b3480156104a657600080fd5b506104af611ea5565b6040516104bc919061285c565b60405180910390f35b6104df60048036036104da9190810190612468565b611f3d565b6040516104ec919061287e565b60405180910390f35b6060600460003373ffffffffffffffffffffffffffffffffffffffff1673ffffffffffffffffffffffffffffffffffffffff16815260200190815260200160002060020180548060200260200160405190810160405280929190818152602001828054801561058357602002820191906000526020600020905b81548152602001906001019080831161056f575b5050505050905090565b60006002828154811061059c57fe5b90600052602060002090600e0201600b01549050919050565b60028054905081106105c657600080fd5b6000600282815481106105d557fe5b90600052602060002090600e020190506105ed6120bd565b6040518060c001604052803373ffffffffffffffffffffffffffffffffffffffff168152602001836001018054600181600116156101000203166002900480601f0160208091040260200160405190810160405280929190818152602001828054600181600116156101000203166002900480156106ac5780601f10610681576101008083540402835291602001916106ac565b820191906000526020600020905b81548152906001019060200180831161068f57829003601f168201915b50505050508152602001836002018054600181600116156101000203166002900480601f01602080910402602001604051908101604052809291908181526020018280546001816001161561010002031660029004801561074e5780601f106107235761010080835404028352916020019161074e565b820191906000526020600020905b81548152906001019060200180831161073157829003601f168201915b50505050508152602001836004018054600181600116156101000203166002900480601f0160208091040260200160405190810160405280929190818152602001828054600181600116156101000203166002900480156107f05780601f106107c5576101008083540402835291602001916107f0565b820191906000526020600020905b8154815290600101906020018083116107d357829003601f168201915b5050505050815260200142815260200183600a015481525090506001819080600181540180825580915050906001820390600052602060002090600602016000909192909190915060008201518160000160006101000a81548173ffffffffffffffffffffffffffffffffffffffff021916908373ffffffffffffffffffffffffffffffffffffffff160217905550602082015181600101908051906020019061089b929190612109565b5060408201518160020190805190602001906108b8929190612109565b5060608201518160030190805190602001906108d5929190612109565b506080820151816004015560a082015181600501555050503373ffffffffffffffffffffffffffffffffffffffff168260000160009054906101000a900473ffffffffffffffffffffffffffffffffffffffff1673ffffffffffffffffffffffffffffffffffffffff161415801561095357506109518361167c565b155b61095c57600080fd5b6040518060200160405280600360008154809291906001019190505581525082600d01600080815260200190815260200160002060008201518160000155905050600460003373ffffffffffffffffffffffffffffffffffffffff1673ffffffffffffffffffffffffffffffffffffffff1681526020019081526020016000206001018390806001815401808255809150509060018203906000526020600020016000909192909190915055506040518060400160405280600681526020017fe7a6bbe9a6860000000000000000000000000000000000000000000000000000815250826007019080519060200190610a56929190612189565b507f1184577b64fcae7df18378b111b57aeb694fb4b805b0931a28d733e37d06805d8333604051610a889291906128b4565b60405180910390a1505050565b6060600460003373ffffffffffffffffffffffffffffffffffffffff1673ffffffffffffffffffffffffffffffffffffffff168152602001908152602001600020600301805480602002602001604051908101604052809291908181526020018280548015610b2357602002820191906000526020600020905b815481526020019060010190808311610b0f575b5050505050905090565b600060608060606000806002805490508710610b4857600080fd5b600060018881548110610b5757fe5b906000526020600020906006020190508060000160009054906101000a900473ffffffffffffffffffffffffffffffffffffffff1681600101826002018360030184600401548560050154848054600181600116156101000203166002900480601f016020809104026020016040519081016040528092919081815260200182805460018160011615610100020316600290048015610c375780601f10610c0c57610100808354040283529160200191610c37565b820191906000526020600020905b815481529060010190602001808311610c1a57829003601f168201915b50505050509450838054600181600116156101000203166002900480601f016020809104026020016040519081016040528092919081815260200182805460018160011615610100020316600290048015610cd35780601f10610ca857610100808354040283529160200191610cd3565b820191906000526020600020905b815481529060010190602001808311610cb657829003601f168201915b50505050509350828054600181600116156101000203166002900480601f016020809104026020016040519081016040528092919081815260200182805460018160011615610100020316600290048015610d6f5780601f10610d4457610100808354040283529160200191610d6f565b820191906000526020600020905b815481529060010190602001808311610d5257829003601f168201915b505050505092509650965096509650965096505091939550919395565b60008060028381548110610d9c57fe5b90600052602060002090600e020190503373ffffffffffffffffffffffffffffffffffffffff168160000160009054906101000a900473ffffffffffffffffffffffffffffffffffffffff1673ffffffffffffffffffffffffffffffffffffffff161415610e0e576001915050610e14565b60009150505b919050565b60008060028381548110610e2957fe5b90600052602060002090600e0201905060008090505b81600b0154811015610ecf573373ffffffffffffffffffffffffffffffffffffffff1682600c01600083815260200190815260200160002060000160009054906101000a900473ffffffffffffffffffffffffffffffffffffffff1673ffffffffffffffffffffffffffffffffffffffff161415610ec257600192505050610ed6565b8080600101915050610e3f565b5060009150505b919050565b600060608060608060608060606000806000806002805490508d10610eff57600080fd5b600060028e81548110610f0e57fe5b90600052602060002090600e020190508060000160009054906101000a900473ffffffffffffffffffffffffffffffffffffffff1681600101826002018360030184600401856005018660060187600701886008015489600901548a600a01548b600b01548a8054600181600116156101000203166002900480601f0160208091040260200160405190810160405280929190818152602001828054600181600116156101000203166002900480156110085780601f10610fdd57610100808354040283529160200191611008565b820191906000526020600020905b815481529060010190602001808311610feb57829003601f168201915b50505050509a50898054600181600116156101000203166002900480601f0160208091040260200160405190810160405280929190818152602001828054600181600116156101000203166002900480156110a45780601f10611079576101008083540402835291602001916110a4565b820191906000526020600020905b81548152906001019060200180831161108757829003601f168201915b50505050509950888054600181600116156101000203166002900480601f0160208091040260200160405190810160405280929190818152602001828054600181600116156101000203166002900480156111405780601f1061111557610100808354040283529160200191611140565b820191906000526020600020905b81548152906001019060200180831161112357829003601f168201915b50505050509850878054600181600116156101000203166002900480601f0160208091040260200160405190810160405280929190818152602001828054600181600116156101000203166002900480156111dc5780601f106111b1576101008083540402835291602001916111dc565b820191906000526020600020905b8154815290600101906020018083116111bf57829003601f168201915b50505050509750868054600181600116156101000203166002900480601f0160208091040260200160405190810160405280929190818152602001828054600181600116156101000203166002900480156112785780601f1061124d57610100808354040283529160200191611278565b820191906000526020600020905b81548152906001019060200180831161125b57829003601f168201915b50505050509650858054600181600116156101000203166002900480601f0160208091040260200160405190810160405280929190818152602001828054600181600116156101000203166002900480156113145780601f106112e957610100808354040283529160200191611314565b820191906000526020600020905b8154815290600101906020018083116112f757829003601f168201915b50505050509550848054600181600116156101000203166002900480601f0160208091040260200160405190810160405280929190818152602001828054600181600116156101000203166002900480156113b05780601f10611385576101008083540402835291602001916113b0565b820191906000526020600020905b81548152906001019060200180831161139357829003601f168201915b505050505094509c509c509c509c509c509c509c509c509c509c509c509c505091939597999b5091939597999b565b600080600283815481106113ef57fe5b90600052602060002090600e02019050600081600d0160008081526020019081526020016000209050806000015492505050919050565b600280549050831061143757600080fd5b60006002848154811061144657fe5b90600052602060002090600e020190503373ffffffffffffffffffffffffffffffffffffffff168160000160009054906101000a900473ffffffffffffffffffffffffffffffffffffffff1673ffffffffffffffffffffffffffffffffffffffff16141580156114bc57506114ba84610e19565b155b6114c557600080fd5b826000111580156114d75750600a8311155b6114e057600080fd5b8281600a016000828254019250508190555060405180608001604052803373ffffffffffffffffffffffffffffffffffffffff1681526020014281526020018481526020018381525081600c01600083600b01600081548092919060010191905055815260200190815260200160002060008201518160000160006101000a81548173ffffffffffffffffffffffffffffffffffffffff021916908373ffffffffffffffffffffffffffffffffffffffff160217905550602082015181600101556040820151816002015560608201518160030190805190602001906115c7929190612109565b50905050600460003373ffffffffffffffffffffffffffffffffffffffff1673ffffffffffffffffffffffffffffffffffffffff1681526020019081526020016000206003018490806001815401808255809150509060018203906000526020600020016000909192909190915055507f0188d9c8488eedcb649a5a94479208fdd077082f814ffe3df1b1b5c7c1216311843383600a015460405161166e939291906128dd565b60405180910390a150505050565b600080600460003373ffffffffffffffffffffffffffffffffffffffff1673ffffffffffffffffffffffffffffffffffffffff168152602001908152602001600020905060008090505b816001018054905081101561170e57838260010182815481106116e557fe5b9060005260206000200154141561170157600192505050611715565b80806001019150506116c6565b5060009150505b919050565b6060600460003373ffffffffffffffffffffffffffffffffffffffff1673ffffffffffffffffffffffffffffffffffffffff1681526020019081526020016000206001018054806020026020016040519081016040528092919081815260200182805480156117a857602002820191906000526020600020905b815481526020019060010190808311611794575b5050505050905090565b60028054905081106117c357600080fd5b6000600282815481106117d257fe5b90600052602060002090600e020190506040518060400160405280600681526020017fe4b88be69eb6000000000000000000000000000000000000000000000000000081525081600701908051906020019061182f929190612189565b50600460003373ffffffffffffffffffffffffffffffffffffffff1673ffffffffffffffffffffffffffffffffffffffff1681526020019081526020016000206002018290806001815401808255809150509060018203906000526020600020016000909192909190915055507f88297056098ebe7c5e31365904b20b645f9238847119be42fd1f8f49eb5b2c5d82336040516118cd9291906128b4565b60405180910390a15050565b6000806000606060028054905086106118f157600080fd5b600286815481106118fe57fe5b90600052602060002090600e0201600b0154851061191b57600080fd5b60006002878154811061192a57fe5b90600052602060002090600e0201600c01600087815260200190815260200160002090508060000160009054906101000a900473ffffffffffffffffffffffffffffffffffffffff168160010154826002015483600301808054600181600116156101000203166002900480601f016020809104026020016040519081016040528092919081815260200182805460018160011615610100020316600290048015611a165780601f106119eb57610100808354040283529160200191611a16565b820191906000526020600020905b8154815290600101906020018083116119f957829003601f168201915b5050505050905094509450945094505092959194509250565b6000600280549050905090565b60006002805490509050611a4e612209565b6040518061018001604052803373ffffffffffffffffffffffffffffffffffffffff1681526020018b81526020018a815260200189815260200188815260200187815260200186815260200185815260200184815260200142815260200160008152602001600081525090506002819080600181540180825580915050906001820390600052602060002090600e02016000909192909190915060008201518160000160006101000a81548173ffffffffffffffffffffffffffffffffffffffff021916908373ffffffffffffffffffffffffffffffffffffffff1602179055506020820151816001019080519060200190611b4b929190612109565b506040820151816002019080519060200190611b68929190612109565b506060820151816003019080519060200190611b85929190612109565b506080820151816004019080519060200190611ba2929190612109565b5060a0820151816005019080519060200190611bbf929190612109565b5060c0820151816006019080519060200190611bdc929190612109565b5060e0820151816007019080519060200190611bf9929190612109565b506101008201518160080155610120820151816009015561014082015181600a015561016082015181600b0155505050600460003373ffffffffffffffffffffffffffffffffffffffff1673ffffffffffffffffffffffffffffffffffffffff1681526020019081526020016000206000018290806001815401808255809150509060018203906000526020600020016000909192909190915055507f16087a9e767de6623e529756b4320e70a69d03793c9223aa357d00d4838db3088282602001518360400151846060015185608001518660a001518760c001518861010001518960e001518a6101200151604051611cfc9a99989796959493929190612914565b60405180910390a150505050505050505050565b6002805490508110611d2157600080fd5b600060028281548110611d3057fe5b90600052602060002090600e020190503373ffffffffffffffffffffffffffffffffffffffff168160000160009054906101000a900473ffffffffffffffffffffffffffffffffffffffff1673ffffffffffffffffffffffffffffffffffffffff1614158015611da55750611da48261167c565b5b611dae57600080fd5b6040518060400160405280600681526020017fe59ca8e9a6860000000000000000000000000000000000000000000000000000815250816007019080519060200190611dfb929190612189565b50600460003373ffffffffffffffffffffffffffffffffffffffff1673ffffffffffffffffffffffffffffffffffffffff1681526020019081526020016000206002018290806001815401808255809150509060018203906000526020600020016000909192909190915055507f30de101b2cf7aac7e760886e5d4063d4496af6839165b08096993de98558d1ba8233604051611e999291906128b4565b60405180910390a15050565b6060600460003373ffffffffffffffffffffffffffffffffffffffff1673ffffffffffffffffffffffffffffffffffffffff168152602001908152602001600020600001805480602002602001604051908101604052809291908181526020018280548015611f3357602002820191906000526020600020905b815481526020019060010190808311611f1f575b5050505050905090565b60006002805490508210611f5057600080fd5b600060028381548110611f5f57fe5b90600052602060002090600e0201905061204a816007018054600181600116156101000203166002900480601f01602080910402602001604051908101604052809291908181526020018280546001816001161561010002031660029004801561200a5780601f10611fdf5761010080835404028352916020019161200a565b820191906000526020600020905b815481529060010190602001808311611fed57829003601f168201915b50505050506040518060400160405280600681526020017fe7a6bbe9a6860000000000000000000000000000000000000000000000000000815250612064565b1561205957600191505061205f565b60009150505b919050565b6000816040516020016120779190612698565b604051602081830303815290604052805190602001208360405160200161209e9190612698565b6040516020818303038152906040528051906020012014905092915050565b6040518060c00160405280600073ffffffffffffffffffffffffffffffffffffffff16815260200160608152602001606081526020016060815260200160008152602001600081525090565b828054600181600116156101000203166002900490600052602060002090601f016020900481019282601f1061214a57805160ff1916838001178555612178565b82800160010185558215612178579182015b8281111561217757825182559160200191906001019061215c565b5b5090506121859190612280565b5090565b828054600181600116156101000203166002900490600052602060002090601f016020900481019282601f106121ca57805160ff19168380011785556121f8565b828001600101855582156121f8579182015b828111156121f75782518255916020019190600101906121dc565b5b5090506122059190612280565b5090565b604051806101800160405280600073ffffffffffffffffffffffffffffffffffffffff16815260200160608152602001606081526020016060815260200160608152602001606081526020016060815260200160608152602001600081526020016000815260200160008152602001600081525090565b6122a291905b8082111561229e576000816000905550600101612286565b5090565b90565b600082601f8301126122b657600080fd5b81356122c96122c482612a0e565b6129e1565b915080825260208301602083018583830111156122e557600080fd5b6122f0838284612b23565b50505092915050565b60008135905061230881612b76565b92915050565b600080600080600080600080610100898b03121561232b57600080fd5b600089013567ffffffffffffffff81111561234557600080fd5b6123518b828c016122a5565b985050602089013567ffffffffffffffff81111561236e57600080fd5b61237a8b828c016122a5565b975050604089013567ffffffffffffffff81111561239757600080fd5b6123a38b828c016122a5565b965050606089013567ffffffffffffffff8111156123c057600080fd5b6123cc8b828c016122a5565b955050608089013567ffffffffffffffff8111156123e957600080fd5b6123f58b828c016122a5565b94505060a089013567ffffffffffffffff81111561241257600080fd5b61241e8b828c016122a5565b93505060c089013567ffffffffffffffff81111561243b57600080fd5b6124478b828c016122a5565b92505060e06124588b828c016122f9565b9150509295985092959890939650565b60006020828403121561247a57600080fd5b6000612488848285016122f9565b91505092915050565b600080604083850312156124a457600080fd5b60006124b2858286016122f9565b92505060206124c3858286016122f9565b9150509250929050565b6000806000606084860312156124e257600080fd5b60006124f0868287016122f9565b9350506020612501868287016122f9565b925050604084013567ffffffffffffffff81111561251e57600080fd5b61252a868287016122a5565b9150509250925092565b6000612540838361267a565b60208301905092915050565b61255581612aed565b82525050565b61256481612aa5565b82525050565b600061257582612a4a565b61257f8185612a78565b935061258a83612a3a565b8060005b838110156125bb5781516125a28882612534565b97506125ad83612a6b565b92505060018101905061258e565b5085935050505092915050565b6125d181612ab7565b82525050565b60006125e282612a60565b6125ec8185612a89565b93506125fc818560208601612b32565b61260581612b65565b840191505092915050565b600061261b82612a60565b6126258185612a9a565b9350612635818560208601612b32565b80840191505092915050565b600061264c82612a55565b6126568185612a89565b9350612666818560208601612b32565b61266f81612b65565b840191505092915050565b61268381612ae3565b82525050565b61269281612ae3565b82525050565b60006126a48284612610565b915081905092915050565b6000610180820190506126c5600083018f61255b565b81810360208301526126d7818e6125d7565b905081810360408301526126eb818d6125d7565b905081810360608301526126ff818c6125d7565b90508181036080830152612713818b6125d7565b905081810360a0830152612727818a6125d7565b905081810360c083015261273b81896125d7565b905081810360e083015261274f81886125d7565b905061275f610100830187612689565b61276d610120830186612689565b61277b610140830185612689565b612789610160830184612689565b9d9c50505050505050505050505050565b600060c0820190506127af600083018961255b565b81810360208301526127c181886125d7565b905081810360408301526127d581876125d7565b905081810360608301526127e981866125d7565b90506127f86080830185612689565b61280560a0830184612689565b979650505050505050565b6000608082019050612825600083018761255b565b6128326020830186612689565b61283f6040830185612689565b818103606083015261285181846125d7565b905095945050505050565b60006020820190508181036000830152612876818461256a565b905092915050565b600060208201905061289360008301846125c8565b92915050565b60006020820190506128ae6000830184612689565b92915050565b60006040820190506128c96000830185612689565b6128d6602083018461254c565b9392505050565b60006060820190506128f26000830186612689565b6128ff602083018561254c565b61290c6040830184612689565b949350505050565b60006101408201905061292a600083018d612689565b818103602083015261293c818c612641565b90508181036040830152612950818b612641565b90508181036060830152612964818a612641565b905081810360808301526129788189612641565b905081810360a083015261298c8188612641565b905081810360c08301526129a08187612641565b90506129af60e0830186612689565b8181036101008301526129c28185612641565b90506129d2610120830184612689565b9b9a5050505050505050505050565b6000604051905081810181811067ffffffffffffffff82111715612a0457600080fd5b8060405250919050565b600067ffffffffffffffff821115612a2557600080fd5b601f19601f8301169050602081019050919050565b6000819050602082019050919050565b600081519050919050565b600081519050919050565b600081519050919050565b6000602082019050919050565b600082825260208201905092915050565b600082825260208201905092915050565b600081905092915050565b6000612ab082612ac3565b9050919050565b60008115159050919050565b600073ffffffffffffffffffffffffffffffffffffffff82169050919050565b6000819050919050565b6000612af882612aff565b9050919050565b6000612b0a82612b11565b9050919050565b6000612b1c82612ac3565b9050919050565b82818337600083830152505050565b60005b83811015612b50578082015181840152602081019050612b35565b83811115612b5f576000848401525b50505050565b6000601f19601f8301169050919050565b612b7f81612ae3565b8114612b8a57600080fd5b5056fea365627a7a723158203ed3e65069e723f535f6458c9f4a1265c57bedee57d9c97dffd8e795bc5091356c6578706572696d656e74616cf564736f6c63430005100040",
  "source": "// SPDX-License-Identifier: SimPL-2.0\npragma solidity >=0.4.22;\npragma experimental ABIEncoderV2;\n\n\ncontract Book{  \n    address[1] manager = [0x325a0Df6416e9fdFfc0d709C5e42d25D87cD0e71];\n  \n     //\n        modifier onlyOwner() {\n            require(msg.sender == manager[0]);\n            _;\n    }\n\n   \n\n    struct OptBook{\n        //id\n        uint[] publishedBooks;//\n        uint[] borrowedBooks;//\n        uint[] returnedBooks;//\n        uint[] commentedBooks;//\n    }\n\n    struct Book{\n        address owner;//\n        string nameWriter;//&\n        string style;//\n        string publisherPublishAge;//&\n        string ISBN;//\n        string intro;//\n        string cover;//\n        string status;//(012 )\n        uint pages;//\n        //unit number;//\n        uint publishDate;//\n        uint score;//\n        uint comment;//\n        mapping(uint => Comment) comments;//\n        mapping(uint => BorrowNums) borrowNums;\n    }\n\n    struct BorrowBook{\n        address borrower;//\n        string nameWriter;//&\n        string style;//\n        string ISBN;//\n        uint borrowDate;//\n        uint score;//\n        \n    }\n\n    struct Comment {\n        address reader; // \n        uint date;      // \n        uint score;     // \n        string content; // \n    }\n\n    struct BorrowNums{\n        uint borrowNum;//\n    }\n\n    BorrowBook[] borrowbooks;\n    Book[] books;\n    uint tempNum = 1;\n    mapping(address => OptBook) BooksPool;\n   \n    \n\n    //event emit\n    //\n    event publishBookSuccess(uint id, string nameWriter, string style, string publisherPublishAge,\n        string ISBN,string intro, string cover, uint pages, string status,\n        uint publishDate);\n    //\n    event evaluateSuccess(uint id,address addr,uint score);\n    //\n    event borrowSuccess(uint id, address addr);\n    //\n    event returnBookSuccess(uint id, address addr);\n    //\n    event offBookSuccess(uint id, address addr);\n\n    //\n    function getBorrowedBooks() public view returns (uint[] memory){\n        return BooksPool[msg.sender].borrowedBooks;\n    }\n    //\n    function getCommentedBook() public view returns(uint[] memory){\n        return BooksPool[msg.sender].commentedBooks;\n    }\n    //\n    function getPublishedBooks() public view returns(uint[] memory){\n        return BooksPool[msg.sender].publishedBooks;\n    }\n    //\n    function getReturnedBooks() public view returns(uint[] memory){\n        return BooksPool[msg.sender].returnedBooks;\n    }\n     //\n   // function getOffBooks() public view returns(uint[] memory){\n    //    return BooksPool[msg.sender].returnedBooks;\n   // }\n\n    //\n    function getBooksLength() public view returns(uint){\n        return books.length;\n    }\n\n    //\n    function getCommentLength(uint id) public view returns (uint) {\n        return books[id].comment;\n    }\n\n    //\n    function getBorrowNums(uint id) public view returns(uint){\n        Book storage book = books[id];\n        BorrowNums storage b = book.borrowNums[0];\n        return b.borrowNum;\n    }\n\n    //\n    function getBookInfo(uint id) public view returns(address, string memory, string memory, string memory,string memory,string memory,string memory,\n        string memory, uint, uint, uint, uint){\n        require(id < books.length);\n        //,\n        Book storage book = books[id];\n        return (book.owner,book.nameWriter,book.style,book.publisherPublishAge,book.ISBN,book.intro,book.cover,book.status,\n        book.pages,book.publishDate,book.score,book.comment);\n    }\n\n    //\n    function getBorrowerInfo(uint id) public view returns(address,string memory,string memory,string memory,uint,uint){\n            require(id<books.length);\n            //OptBook storage optBook = BooksPool[msg.sender];\n            // for(uint i = 0; i < optBook.borrowedBooks.length; i++)\n            // if(optBook.borrowedBooks[i] == id)\n            BorrowBook storage borrow = borrowbooks[id];\n            return (borrow.borrower,borrow.nameWriter,borrow.style,borrow.ISBN,borrow.borrowDate,borrow.score);\n        }\n\n    //\n    function getCommentInfo(uint bookId,uint commentId) public view returns(\n        address, uint, uint, string memory){\n        require(bookId < books.length);\n        require(commentId < books[bookId].comment);\n        Comment storage c = books[bookId].comments[commentId];\n        return (c.reader, c.date, c.score, c.content);\n    }\n    \n\n\n    //  \n    function isEvaluated(uint id) public view returns (bool) {\n        Book storage book = books[id];\n        for(uint i = 0; i < book.comment; i++)\n            if(book.comments[i].reader == msg.sender)\n                return true; // \n        return false; // \n    }\n\n    //  \n    function isBorrowed(uint id) public view returns (bool) {\n        OptBook storage optBook = BooksPool[msg.sender];\n        for(uint i = 0; i < optBook.borrowedBooks.length; i++)\n            if(optBook.borrowedBooks[i] == id)\n                return true; // \n        return false; // \n    }\n\n    function isMyBook(uint id) public view returns(bool){\n        Book storage book = books[id];\n        if(book.owner == msg.sender)\n            return true;\n        return false;\n    }\n\n    //\n    function isBookLeft(uint id) public payable returns(bool){\n        require(id < books.length);\n        Book storage book = books[id];\n        if(hashCompareInternal(book.status, \"\"))\n            return true;//\n        return false;//\n    }\n\n    //\n    // function isBookOff(uint id) public payable returns(bool){\n    //     require(id < books.length);\n    //     Book storage book = books[id];\n    //     if(hashCompareInternal(book.status,\"\"))\n    //         return true;//\n    //     return false;//\n    // }\n\n    //\n    function publishBookInfo(string memory nameWriter, string memory style, string memory publisherPublishAge,string memory ISBN,string memory intro,\n        string memory cover,string memory status ,uint pages) public {\n        uint id = books.length;\n        Book memory book = Book(msg.sender,nameWriter,style,publisherPublishAge,ISBN,intro,cover,status,pages,now,0,0);\n        books.push(book);\n        BooksPool[msg.sender].publishedBooks.push(id);\n        emit publishBookSuccess(id,book.nameWriter,book.style,book.publisherPublishAge,book.ISBN,book.intro,book.cover,\n            book.pages,book.status,book.publishDate);\n    }\n\n    //\n    function evaluate(uint id, uint score, string memory content) public{\n        require(id < books.length);\n        // \n        Book storage book = books[id];\n        require(book.owner != msg.sender && !isEvaluated(id)); // \n        require(0 <= score && score <= 10); // \n        // \n        book.score += score;\n        book.comments[book.comment++] = Comment(msg.sender, now, score, content);\n        BooksPool[msg.sender].commentedBooks.push(id);\n        emit evaluateSuccess(id, msg.sender, book.score);\n    }\n\n    //\n    function returnBook(uint id) public{\n        require(id < books.length);\n        Book storage book = books[id];\n        require(book.owner != msg.sender && isBorrowed(id)); // \n        book.status = \"\";\n        BooksPool[msg.sender].returnedBooks.push(id);\n        emit returnBookSuccess(id, msg.sender);\n    }\n\n    //\n    function borrowedBook(uint id) public{\n        require(id < books.length);\n        Book storage book = books[id];\n        BorrowBook memory borrowbook = BorrowBook(msg.sender,book.nameWriter,book.style,book.ISBN,now,book.score);\n        borrowbooks.push(borrowbook);\n        require(book.owner != msg.sender && !isBorrowed(id)); // \n        book.borrowNums[0] = BorrowNums(tempNum++);\n        BooksPool[msg.sender].borrowedBooks.push(id);\n        book.status=\"\";\n        emit borrowSuccess(id, msg.sender);\n\n    }\n    //\n    function offBook(uint id) public{\n        require(id < books.length);\n        Book storage book = books[id];\n        //require(book.owner != msg.sender && isBorrowed(id)); // \n        book.status = \"\";\n        BooksPool[msg.sender].returnedBooks.push(id);\n        emit offBookSuccess(id, msg.sender);\n    }\n\n\n    //\n    function hashCompareInternal(string memory a, string memory b) internal returns (bool) {\n        return keccak256(abi.encodePacked(a)) == keccak256(abi.encodePacked(b));\n    }\n\n    function () external {\n        revert();\n    }\n\n\n}\n",
  "sourcePath": "F:\\desktop\\library_dapp\\contracts\\Book.sol",
  "compiler": {
    "name": "solc",
    "version": "0.5.16+commit.9c3226ce.Emscripten.clang"
  },
  "schemaVersion": "3.0.23",
  "updatedAt": "2022-05-31T07:27:32.139Z",
  "networkType": "ethereum",
  "devdoc": {
    "methods": {}
  },
  "userdoc": {
    "methods": {}
  }
}