{
  "contractName": "User",
  "abi": [
    {
      "anonymous": false,
      "inputs": [
        {
          "indexed": false,
          "internalType": "uint256",
          "name": "id",
          "type": "uint256"
        },
        {
          "indexed": false,
          "internalType": "address",
          "name": "useraddress",
          "type": "address"
        },
        {
          "indexed": false,
          "internalType": "string",
          "name": "userame",
          "type": "string"
        },
        {
          "indexed": false,
          "internalType": "string",
          "name": "password",
          "type": "string"
        }
      ],
      "name": "registeStudentSuccess",
      "type": "event"
    },
    {
      "constant": true,
      "inputs": [
        {
          "internalType": "uint256",
          "name": "",
          "type": "uint256"
        }
      ],
      "name": "userAddresses",
      "outputs": [
        {
          "internalType": "address",
          "name": "",
          "type": "address"
        }
      ],
      "payable": false,
      "stateMutability": "view",
      "type": "function"
    },
    {
      "constant": false,
      "inputs": [
        {
          "internalType": "address",
          "name": "userAddress",
          "type": "address"
        },
        {
          "internalType": "string",
          "name": "username",
          "type": "string"
        },
        {
          "internalType": "string",
          "name": "password",
          "type": "string"
        }
      ],
      "name": "createUser",
      "outputs": [
        {
          "internalType": "uint256",
          "name": "",
          "type": "uint256"
        }
      ],
      "payable": false,
      "stateMutability": "nonpayable",
      "type": "function"
    },
    {
      "constant": true,
      "inputs": [
        {
          "internalType": "address",
          "name": "userAddress",
          "type": "address"
        }
      ],
      "name": "findUser",
      "outputs": [
        {
          "internalType": "address",
          "name": "",
          "type": "address"
        },
        {
          "internalType": "string",
          "name": "",
          "type": "string"
        },
        {
          "internalType": "string",
          "name": "",
          "type": "string"
        },
        {
          "internalType": "uint256",
          "name": "",
          "type": "uint256"
        }
      ],
      "payable": false,
      "stateMutability": "view",
      "type": "function"
    },
    {
      "constant": false,
      "inputs": [
        {
          "internalType": "address",
          "name": "useraddress",
          "type": "address"
        },
        {
          "internalType": "string",
          "name": "username",
          "type": "string"
        },
        {
          "internalType": "string",
          "name": "password",
          "type": "string"
        }
      ],
      "name": "RegisterInfo",
      "outputs": [],
      "payable": false,
      "stateMutability": "nonpayable",
      "type": "function"
    },
    {
      "constant": true,
      "inputs": [],
      "name": "getRegisteStudents",
      "outputs": [
        {
          "internalType": "uint256[]",
          "name": "",
          "type": "uint256[]"
        }
      ],
      "payable": false,
      "stateMutability": "view",
      "type": "function"
    }
  ],
  "bytecode": "0x608060405234801561001057600080fd5b50610f7c806100206000396000f3fe608060405234801561001057600080fd5b50600436106100575760003560e01c80634ceb48fd1461005c578063502c9bd51461008c5780639168043f146100bc5780639b251268146100da578063df9d9024146100f6575b600080fd5b61007660048036036100719190810190610ab5565b610129565b6040516100839190610d4a565b60405180910390f35b6100a660048036036100a19190810190610b34565b610391565b6040516100b39190610cba565b60405180910390f35b6100c46103cd565b6040516100d19190610d28565b60405180910390f35b6100f460048036036100ef9190810190610ab5565b610465565b005b610110600480360361010b9190810190610a8c565b610633565b6040516101209493929190610cd5565b60405180910390f35b6000808490806001815401808255809150509060018203906000526020600020016000909192909190916101000a81548173ffffffffffffffffffffffffffffffffffffffff021916908373ffffffffffffffffffffffffffffffffffffffff1602179055505060405180608001604052808573ffffffffffffffffffffffffffffffffffffffff168152602001848152602001838152602001600160008054905003815250600460008673ffffffffffffffffffffffffffffffffffffffff1673ffffffffffffffffffffffffffffffffffffffff16815260200190815260200160002060008201518160000160006101000a81548173ffffffffffffffffffffffffffffffffffffffff021916908373ffffffffffffffffffffffffffffffffffffffff16021790555060208201518160010190805190602001906102719291906108ab565b50604082015181600201908051906020019061028e9291906108ab565b506060820151816003015590505060018390806001815401808255809150509060018203906000526020600020016000909192909190915090805190602001906102d992919061092b565b505060405180604001604052808573ffffffffffffffffffffffffffffffffffffffff168152602001600180805490500381525060058460405161031d9190610ca3565b908152602001604051809103902060008201518160000160006101000a81548173ffffffffffffffffffffffffffffffffffffffff021916908373ffffffffffffffffffffffffffffffffffffffff1602179055506020820151816001015590505060016000805490500390509392505050565b6000818154811061039e57fe5b906000526020600020016000915054906101000a900473ffffffffffffffffffffffffffffffffffffffff1681565b6060600360003373ffffffffffffffffffffffffffffffffffffffff1673ffffffffffffffffffffffffffffffffffffffff16815260200190815260200160002060000180548060200260200160405190810160405280929190818152602001828054801561045b57602002820191906000526020600020905b815481526020019060010190808311610447575b5050505050905090565b3392506000600280549050905061047a6109ab565b60405180608001604052803373ffffffffffffffffffffffffffffffffffffffff16815260200185815260200184815260200160016000805490500381525090506002819080600181540180825580915050906001820390600052602060002090600402016000909192909190915060008201518160000160006101000a81548173ffffffffffffffffffffffffffffffffffffffff021916908373ffffffffffffffffffffffffffffffffffffffff160217905550602082015181600101908051906020019061054c9291906108ab565b5060408201518160020190805190602001906105699291906108ab565b5060608201518160030155505050600360003373ffffffffffffffffffffffffffffffffffffffff1673ffffffffffffffffffffffffffffffffffffffff1681526020019081526020016000206000018290806001815401808255809150509060018203906000526020600020016000909192909190915055507f2a266318bd18f065faaf69ec80440b3a2f970e09920493bd17fae5cdcce393aa828260000151836020015184604001516040516106249493929190610d65565b60405180910390a15050505050565b60006060806000600460008673ffffffffffffffffffffffffffffffffffffffff1673ffffffffffffffffffffffffffffffffffffffff16815260200190815260200160002060000160009054906101000a900473ffffffffffffffffffffffffffffffffffffffff16600460008773ffffffffffffffffffffffffffffffffffffffff1673ffffffffffffffffffffffffffffffffffffffff168152602001908152602001600020600101600460008873ffffffffffffffffffffffffffffffffffffffff1673ffffffffffffffffffffffffffffffffffffffff168152602001908152602001600020600201600460008973ffffffffffffffffffffffffffffffffffffffff1673ffffffffffffffffffffffffffffffffffffffff16815260200190815260200160002060030154828054600181600116156101000203166002900480601f0160208091040260200160405190810160405280929190818152602001828054600181600116156101000203166002900480156107f95780601f106107ce576101008083540402835291602001916107f9565b820191906000526020600020905b8154815290600101906020018083116107dc57829003601f168201915b50505050509250818054600181600116156101000203166002900480601f0160208091040260200160405190810160405280929190818152602001828054600181600116156101000203166002900480156108955780601f1061086a57610100808354040283529160200191610895565b820191906000526020600020905b81548152906001019060200180831161087857829003601f168201915b5050505050915093509350935093509193509193565b828054600181600116156101000203166002900490600052602060002090601f016020900481019282601f106108ec57805160ff191683800117855561091a565b8280016001018555821561091a579182015b828111156109195782518255916020019190600101906108fe565b5b50905061092791906109e9565b5090565b828054600181600116156101000203166002900490600052602060002090601f016020900481019282601f1061096c57805160ff191683800117855561099a565b8280016001018555821561099a579182015b8281111561099957825182559160200191906001019061097e565b5b5090506109a791906109e9565b5090565b6040518060800160405280600073ffffffffffffffffffffffffffffffffffffffff1681526020016060815260200160608152602001600081525090565b610a0b91905b80821115610a075760008160009055506001016109ef565b5090565b90565b600081359050610a1d81610f0b565b92915050565b600082601f830112610a3457600080fd5b8135610a47610a4282610de5565b610db8565b91508082526020830160208301858383011115610a6357600080fd5b610a6e838284610eb8565b50505092915050565b600081359050610a8681610f22565b92915050565b600060208284031215610a9e57600080fd5b6000610aac84828501610a0e565b91505092915050565b600080600060608486031215610aca57600080fd5b6000610ad886828701610a0e565b935050602084013567ffffffffffffffff811115610af557600080fd5b610b0186828701610a23565b925050604084013567ffffffffffffffff811115610b1e57600080fd5b610b2a86828701610a23565b9150509250925092565b600060208284031215610b4657600080fd5b6000610b5484828501610a77565b91505092915050565b6000610b698383610c85565b60208301905092915050565b610b7e81610e7c565b82525050565b6000610b8f82610e21565b610b998185610e4f565b9350610ba483610e11565b8060005b83811015610bd5578151610bbc8882610b5d565b9750610bc783610e42565b925050600181019050610ba8565b5085935050505092915050565b6000610bed82610e37565b610bf78185610e60565b9350610c07818560208601610ec7565b610c1081610efa565b840191505092915050565b6000610c2682610e37565b610c308185610e71565b9350610c40818560208601610ec7565b80840191505092915050565b6000610c5782610e2c565b610c618185610e60565b9350610c71818560208601610ec7565b610c7a81610efa565b840191505092915050565b610c8e81610eae565b82525050565b610c9d81610eae565b82525050565b6000610caf8284610c1b565b915081905092915050565b6000602082019050610ccf6000830184610b75565b92915050565b6000608082019050610cea6000830187610b75565b8181036020830152610cfc8186610be2565b90508181036040830152610d108185610be2565b9050610d1f6060830184610c94565b95945050505050565b60006020820190508181036000830152610d428184610b84565b905092915050565b6000602082019050610d5f6000830184610c94565b92915050565b6000608082019050610d7a6000830187610c94565b610d876020830186610b75565b8181036040830152610d998185610c4c565b90508181036060830152610dad8184610c4c565b905095945050505050565b6000604051905081810181811067ffffffffffffffff82111715610ddb57600080fd5b8060405250919050565b600067ffffffffffffffff821115610dfc57600080fd5b601f19601f8301169050602081019050919050565b6000819050602082019050919050565b600081519050919050565b600081519050919050565b600081519050919050565b6000602082019050919050565b600082825260208201905092915050565b600082825260208201905092915050565b600081905092915050565b6000610e8782610e8e565b9050919050565b600073ffffffffffffffffffffffffffffffffffffffff82169050919050565b6000819050919050565b82818337600083830152505050565b60005b83811015610ee5578082015181840152602081019050610eca565b83811115610ef4576000848401525b50505050565b6000601f19601f8301169050919050565b610f1481610e7c565b8114610f1f57600080fd5b50565b610f2b81610eae565b8114610f3657600080fd5b5056fea365627a7a723158201a589242e32d0fcdbe9c51d7346a835529e3cb284aab0b6a5727d2e3cc756c406c6578706572696d656e74616cf564736f6c63430005100040",
  "source": "// SPDX-License-Identifier: SimPL-2.0\r\npragma solidity >=0.4.22;\r\npragma experimental ABIEncoderV2;\r\n\r\ncontract User{\r\n    //所有地址集合\r\n    address[] public userAddresses;\r\n    //所有用户名集合\r\n    string[] private usernames;\r\n\r\n     //定义用户数据结构    \r\n    struct Student{\r\n        address userAddress;//msg.sender\r\n        string username;//学生姓名\r\n        string password;//密码\r\n        uint index;\r\n    }\r\n\r\n    //定义用户列表数据结构\r\n    struct UserListStruct {\r\n        address userAddress;\r\n        uint index;\r\n    }\r\n    struct OptStudent{\r\n        //已经注册的学生\r\n        uint[] registeStudents;\r\n\r\n    }\r\n\r\n    Student[] students;\r\n    mapping(address => OptStudent) StudentsPool;\r\n\r\n    mapping(address => Student) private studentStruct;\r\n    //用户名映射地址\r\n    mapping(string => UserListStruct) private userListStruct;\r\n\r\n\r\n\r\n\r\n    function createUser(address userAddress, string memory username, string memory password) public returns (uint) {\r\n\r\n        userAddresses.push(userAddress); //地址集合push新地址\r\n        studentStruct[userAddress] = Student(userAddress, username, password, userAddresses.length - 1);\r\n\r\n        usernames.push(username); //用户名集合push新用户\r\n        userListStruct[username] = UserListStruct(userAddress, usernames.length - 1); //用户所对应的地址集合\r\n\r\n        return userAddresses.length - 1;\r\n    }\r\n\r\n  \r\n    //获取用户个人信息\r\n    function findUser(address userAddress) public view returns (address , string memory, string memory,  uint ) {\r\n        return (\r\n            studentStruct[userAddress].userAddress,\r\n            studentStruct[userAddress].username,\r\n            studentStruct[userAddress].password,\r\n            studentStruct[userAddress].index\r\n            ); \r\n    }\r\n    //注册用户\r\n    function RegisterInfo( address useraddress,string memory username, string memory password) public {\r\n\t\tuseraddress = msg.sender;\r\n        uint id = students.length;\r\n\t\tStudent memory student = Student(msg.sender, username, password,  userAddresses.length - 1);\r\n        students.push(student);\r\n        StudentsPool[msg.sender].registeStudents.push(id);\r\n\t\temit registeStudentSuccess(id, student.userAddress, student.username, student.password);\r\n}\r\n    //注册成功\r\n\tevent registeStudentSuccess(uint id, address useraddress, string userame, string password);\r\n\r\n    //获取注册用户\r\n    function getRegisteStudents() public view returns(uint[] memory){\r\n        return StudentsPool[msg.sender].registeStudents;\r\n    }\r\n\r\n\r\n\r\n}",
  "sourcePath": "F:\\desktop\\library_dapp\\contracts\\User.sol",
  "compiler": {
    "name": "solc",
    "version": "0.5.16+commit.9c3226ce.Emscripten.clang"
  },
  "schemaVersion": "3.0.23",
  "updatedAt": "2022-05-31T07:27:32.636Z",
  "networkType": "ethereum",
  "devdoc": {
    "methods": {}
  },
  "userdoc": {
    "methods": {}
  }
}